{
  "_format": "hh-sol-artifact-1",
  "contractName": "LockerV2",
  "sourceName": "contracts/LockerV2.sol",
  "abi": [
    {
      "inputs": [
        {
          "internalType": "contract IERC20",
          "name": "_stakingToken",
          "type": "address"
        },
        {
          "internalType": "uint256",
          "name": "_cliff",
          "type": "uint256"
        },
        {
          "internalType": "uint256",
          "name": "_periodLength",
          "type": "uint256"
        },
        {
          "internalType": "uint256",
          "name": "_percentPerPeriod",
          "type": "uint256"
        }
      ],
      "stateMutability": "nonpayable",
      "type": "constructor"
    },
    {
      "anonymous": false,
      "inputs": [
        {
          "indexed": true,
          "internalType": "address",
          "name": "previousOwner",
          "type": "address"
        },
        {
          "indexed": true,
          "internalType": "address",
          "name": "newOwner",
          "type": "address"
        }
      ],
      "name": "OwnershipTransferred",
      "type": "event"
    },
    {
      "inputs": [
        {
          "internalType": "uint256",
          "name": "index",
          "type": "uint256"
        },
        {
          "internalType": "address",
          "name": "account",
          "type": "address"
        }
      ],
      "name": "availableToUnstake",
      "outputs": [
        {
          "internalType": "uint256",
          "name": "",
          "type": "uint256"
        }
      ],
      "stateMutability": "view",
      "type": "function"
    },
    {
      "inputs": [
        {
          "internalType": "address",
          "name": "account",
          "type": "address"
        }
      ],
      "name": "balanceOf",
      "outputs": [
        {
          "internalType": "uint256",
          "name": "",
          "type": "uint256"
        }
      ],
      "stateMutability": "view",
      "type": "function"
    },
    {
      "inputs": [],
      "name": "cliff",
      "outputs": [
        {
          "internalType": "uint256",
          "name": "",
          "type": "uint256"
        }
      ],
      "stateMutability": "view",
      "type": "function"
    },
    {
      "inputs": [
        {
          "internalType": "address",
          "name": "account",
          "type": "address"
        }
      ],
      "name": "getStakes",
      "outputs": [
        {
          "components": [
            {
              "internalType": "uint256",
              "name": "cliff",
              "type": "uint256"
            },
            {
              "internalType": "uint256",
              "name": "periodLength",
              "type": "uint256"
            },
            {
              "internalType": "uint256",
              "name": "percentPerPeriod",
              "type": "uint256"
            },
            {
              "internalType": "uint256",
              "name": "initialBalance",
              "type": "uint256"
            },
            {
              "internalType": "uint256",
              "name": "currentBalance",
              "type": "uint256"
            },
            {
              "internalType": "uint256",
              "name": "blockNumber",
              "type": "uint256"
            }
          ],
          "internalType": "struct LockerV2.Stake[]",
          "name": "accountStakes",
          "type": "tuple[]"
        }
      ],
      "stateMutability": "view",
      "type": "function"
    },
    {
      "inputs": [],
      "name": "owner",
      "outputs": [
        {
          "internalType": "address",
          "name": "",
          "type": "address"
        }
      ],
      "stateMutability": "view",
      "type": "function"
    },
    {
      "inputs": [],
      "name": "percentPerPeriod",
      "outputs": [
        {
          "internalType": "uint256",
          "name": "",
          "type": "uint256"
        }
      ],
      "stateMutability": "view",
      "type": "function"
    },
    {
      "inputs": [],
      "name": "periodLength",
      "outputs": [
        {
          "internalType": "uint256",
          "name": "",
          "type": "uint256"
        }
      ],
      "stateMutability": "view",
      "type": "function"
    },
    {
      "inputs": [],
      "name": "renounceOwnership",
      "outputs": [],
      "stateMutability": "nonpayable",
      "type": "function"
    },
    {
      "inputs": [
        {
          "internalType": "uint256",
          "name": "_cliff",
          "type": "uint256"
        },
        {
          "internalType": "uint256",
          "name": "_periodLength",
          "type": "uint256"
        },
        {
          "internalType": "uint256",
          "name": "_percentPerPeriod",
          "type": "uint256"
        }
      ],
      "name": "setVestingSchedule",
      "outputs": [],
      "stateMutability": "nonpayable",
      "type": "function"
    },
    {
      "inputs": [
        {
          "internalType": "uint256",
          "name": "amount",
          "type": "uint256"
        }
      ],
      "name": "stake",
      "outputs": [],
      "stateMutability": "nonpayable",
      "type": "function"
    },
    {
      "inputs": [
        {
          "internalType": "address",
          "name": "account",
          "type": "address"
        },
        {
          "internalType": "uint256",
          "name": "amount",
          "type": "uint256"
        }
      ],
      "name": "stakeFor",
      "outputs": [],
      "stateMutability": "nonpayable",
      "type": "function"
    },
    {
      "inputs": [
        {
          "internalType": "address",
          "name": "",
          "type": "address"
        },
        {
          "internalType": "uint256",
          "name": "",
          "type": "uint256"
        }
      ],
      "name": "stakes",
      "outputs": [
        {
          "internalType": "uint256",
          "name": "cliff",
          "type": "uint256"
        },
        {
          "internalType": "uint256",
          "name": "periodLength",
          "type": "uint256"
        },
        {
          "internalType": "uint256",
          "name": "percentPerPeriod",
          "type": "uint256"
        },
        {
          "internalType": "uint256",
          "name": "initialBalance",
          "type": "uint256"
        },
        {
          "internalType": "uint256",
          "name": "currentBalance",
          "type": "uint256"
        },
        {
          "internalType": "uint256",
          "name": "blockNumber",
          "type": "uint256"
        }
      ],
      "stateMutability": "view",
      "type": "function"
    },
    {
      "inputs": [],
      "name": "stakingToken",
      "outputs": [
        {
          "internalType": "contract IERC20",
          "name": "",
          "type": "address"
        }
      ],
      "stateMutability": "view",
      "type": "function"
    },
    {
      "inputs": [
        {
          "internalType": "address",
          "name": "newOwner",
          "type": "address"
        }
      ],
      "name": "transferOwnership",
      "outputs": [],
      "stateMutability": "nonpayable",
      "type": "function"
    },
    {
      "inputs": [
        {
          "internalType": "uint256",
          "name": "index",
          "type": "uint256"
        },
        {
          "internalType": "uint256",
          "name": "amount",
          "type": "uint256"
        }
      ],
      "name": "unstake",
      "outputs": [],
      "stateMutability": "nonpayable",
      "type": "function"
    },
    {
      "inputs": [
        {
          "internalType": "uint256",
          "name": "index",
          "type": "uint256"
        },
        {
          "internalType": "address",
          "name": "account",
          "type": "address"
        }
      ],
      "name": "vested",
      "outputs": [
        {
          "internalType": "uint256",
          "name": "",
          "type": "uint256"
        }
      ],
      "stateMutability": "view",
      "type": "function"
    }
  ],
  "bytecode": "0x60a060405234801561001057600080fd5b5060405161191138038061191183398101604081905261002f916100ab565b60006100396100a7565b600080546001600160a01b0319166001600160a01b0383169081178255604051929350917f8be0079c531659141344cd1fd0a4f28419497f9722a3daafe3b4186f6b6457e0908290a35060609390931b6001600160601b0319166080526001919091556002556003556100f4565b3390565b600080600080608085870312156100c0578384fd5b84516001600160a01b03811681146100d6578485fd5b60208601516040870151606090970151919890975090945092505050565b60805160601c6117f1610120600039806102e952806106235280610aa45280610c8052506117f16000f3fe608060405234801561001057600080fd5b50600436106101005760003560e01c80638da5cb5b11610097578063a694fc3a11610066578063a694fc3a14610201578063c42fc08714610214578063d2ca21151461021c578063f2fde38b1461022457610100565b80638da5cb5b146101c057806397dca388146101c85780639e2c8a5b146101db578063a0dfe58d146101ee57610100565b806370a08231116100d357806370a0823114610170578063715018a61461018357806372f702f31461018b5780637ba6f458146101a057610100565b806313d033c0146101055780632ee40908146101235780633c90091b14610138578063584b62a11461014b575b600080fd5b61010d610237565b60405161011a91906116f3565b60405180910390f35b6101366101313660046114ee565b61023d565b005b61010d61014636600461154f565b610315565b61015e6101593660046114ee565b6103b7565b60405161011a969594939291906116fc565b61010d61017e3660046114d4565b61040b565b61013661050a565b610193610621565b60405161011a91906115c6565b6101b36101ae3660046114d4565b610645565b60405161011a919061160d565b61019361077d565b61010d6101d636600461154f565b610799565b6101366101e936600461157a565b610889565b6101366101fc36600461159b565b610b35565b61013661020f366004611537565b610beb565b61010d610cc0565b61010d610cc6565b6101366102323660046114d4565b610ccc565b60015481565b73ffffffffffffffffffffffffffffffffffffffff8083166000908152600460208181526040808420815160c0810183526001805482526002805483870190815260038054968501968752606085018c8152608086018d81524360a0880190815288548088018a55988d5299909b2095516006909702909501958655905192850192909255935193830193909355519181019190915592519183019190915551600590910155610311907f000000000000000000000000000000000000000000000000000000000000000016833084610e6d565b5050565b73ffffffffffffffffffffffffffffffffffffffff8116600090815260046020526040812080548291908590811061034957fe5b906000526020600020906006020190506000610380826001015461037a846005015443610f0890919063ffffffff16565b90610f7f565b90506103ac606461037a84600301546103a685876002015461100090919063ffffffff16565b90611000565b925050505b92915050565b600460205281600052604060002081815481106103d357600080fd5b600091825260209091206006909102018054600182015460028301546003840154600485015460059095015493965091945092909186565b73ffffffffffffffffffffffffffffffffffffffff8116600090815260046020908152604080832080548251818502810185019093528083528493849084015b828210156104b957838290600052602060002090600602016040518060c001604052908160008201548152602001600182015481526020016002820154815260200160038201548152602001600482015481526020016005820154815250508152602001906001019061044b565b5050505090506000805b8251811015610500576104f68382815181106104db57fe5b6020026020010151608001518361107a90919063ffffffff16565b91506001016104c3565b509150505b919050565b6105126110ee565b73ffffffffffffffffffffffffffffffffffffffff1661053061077d565b73ffffffffffffffffffffffffffffffffffffffff16146105b257604080517f08c379a000000000000000000000000000000000000000000000000000000000815260206004820181905260248201527f4f776e61626c653a2063616c6c6572206973206e6f7420746865206f776e6572604482015290519081900360640190fd5b6000805460405173ffffffffffffffffffffffffffffffffffffffff909116907f8be0079c531659141344cd1fd0a4f28419497f9722a3daafe3b4186f6b6457e0908390a3600080547fffffffffffffffffffffffff0000000000000000000000000000000000000000169055565b7f000000000000000000000000000000000000000000000000000000000000000081565b73ffffffffffffffffffffffffffffffffffffffff81166000908152600460205260409020546060908067ffffffffffffffff8111801561068557600080fd5b506040519080825280602002602001820160405280156106bf57816020015b6106ac61147a565b8152602001906001900390816106a45790505b50915060005b818110156107765773ffffffffffffffffffffffffffffffffffffffff841660009081526004602052604081208054839081106106fe57fe5b90600052602060002090600602016040518060c0016040529081600082015481526020016001820154815260200160028201548152602001600382015481526020016004820154815260200160058201548152505090508084838151811061076257fe5b6020908102919091010152506001016106c5565b5050919050565b60005473ffffffffffffffffffffffffffffffffffffffff1690565b6000806107a68484610315565b9050600080600460008673ffffffffffffffffffffffffffffffffffffffff1673ffffffffffffffffffffffffffffffffffffffff16815260200190815260200160002086815481106107f557fe5b90600052602060002090600602016040518060c00160405290816000820154815260200160018201548152602001600282015481526020016003820154815260200160048201548152602001600582015481525050905080600001516108688260a0015143610f0890919063ffffffff16565b1061087557806080015191505b61087f83836110f2565b9695505050505050565b3360009081526004602052604081208054849081106108a457fe5b9060005260206000209060060201905080600001546108d0826005015443610f0890919063ffffffff16565b1015610911576040517f08c379a0000000000000000000000000000000000000000000000000000000008152600401610908906116bc565b60405180910390fd5b600061091d8433610315565b9050600061092b8533610799565b905080841115610967576040517f08c379a000000000000000000000000000000000000000000000000000000000815260040161090890611685565b60048301546109769085610f08565b60048401819055610a6757336000908152600460205260408120805490919082906109a2906001610f08565b815481106109ac57fe5b60009182526020808320600690920290910180548855600180820154908901556002808201549089015560038082015490890155600480820154818a0155600580830154908a0155338452909152604090912080549192509080610a0c57fe5b60008281526020812060067fffffffffffffffffffffffffffffffffffffffffffffffffffffffffffffffff909301928302018181556001810182905560028101829055600381018290556004810182905560050155905550505b6040517fa9059cbb00000000000000000000000000000000000000000000000000000000815273ffffffffffffffffffffffffffffffffffffffff7f0000000000000000000000000000000000000000000000000000000000000000169063a9059cbb90610adb90339088906004016115e7565b602060405180830381600087803b158015610af557600080fd5b505af1158015610b09573d6000803e3d6000fd5b505050506040513d601f19601f82011682018060405250810190610b2d9190611517565b505050505050565b610b3d6110ee565b73ffffffffffffffffffffffffffffffffffffffff16610b5b61077d565b73ffffffffffffffffffffffffffffffffffffffff1614610bdd57604080517f08c379a000000000000000000000000000000000000000000000000000000000815260206004820181905260248201527f4f776e61626c653a2063616c6c6572206973206e6f7420746865206f776e6572604482015290519081900360640190fd5b600192909255600255600355565b336000818152600460208181526040808420815160c0810183526001805482526002805483870190815260038054968501968752606085018c8152608086018d81524360a0880190815288548088018a55988d5299909b2095516006909702909501958655905192850192909255935193830193909355519181019190915592519183019190915551600590910155610cbd907f000000000000000000000000000000000000000000000000000000000000000073ffffffffffffffffffffffffffffffffffffffff16903084610e6d565b50565b60035481565b60025481565b610cd46110ee565b73ffffffffffffffffffffffffffffffffffffffff16610cf261077d565b73ffffffffffffffffffffffffffffffffffffffff1614610d7457604080517f08c379a000000000000000000000000000000000000000000000000000000000815260206004820181905260248201527f4f776e61626c653a2063616c6c6572206973206e6f7420746865206f776e6572604482015290519081900360640190fd5b73ffffffffffffffffffffffffffffffffffffffff8116610de0576040517f08c379a00000000000000000000000000000000000000000000000000000000081526004018080602001828103825260268152602001806117256026913960400191505060405180910390fd5b6000805460405173ffffffffffffffffffffffffffffffffffffffff808516939216917f8be0079c531659141344cd1fd0a4f28419497f9722a3daafe3b4186f6b6457e091a3600080547fffffffffffffffffffffffff00000000000000000000000000000000000000001673ffffffffffffffffffffffffffffffffffffffff92909216919091179055565b6040805173ffffffffffffffffffffffffffffffffffffffff80861660248301528416604482015260648082018490528251808303909101815260849091019091526020810180517bffffffffffffffffffffffffffffffffffffffffffffffffffffffff167f23b872dd00000000000000000000000000000000000000000000000000000000179052610f02908590611108565b50505050565b600082821115610f7957604080517f08c379a000000000000000000000000000000000000000000000000000000000815260206004820152601e60248201527f536166654d6174683a207375627472616374696f6e206f766572666c6f770000604482015290519081900360640190fd5b50900390565b6000808211610fef57604080517f08c379a000000000000000000000000000000000000000000000000000000000815260206004820152601a60248201527f536166654d6174683a206469766973696f6e206279207a65726f000000000000604482015290519081900360640190fd5b818381610ff857fe5b049392505050565b60008261100f575060006103b1565b8282028284828161101c57fe5b0414611073576040517f08c379a00000000000000000000000000000000000000000000000000000000081526004018080602001828103825260218152602001806117716021913960400191505060405180910390fd5b9392505050565b60008282018381101561107357604080517f08c379a000000000000000000000000000000000000000000000000000000000815260206004820152601b60248201527f536166654d6174683a206164646974696f6e206f766572666c6f770000000000604482015290519081900360640190fd5b3390565b60008183106111015781611073565b5090919050565b600061116a826040518060400160405280602081526020017f5361666545524332303a206c6f772d6c6576656c2063616c6c206661696c65648152508573ffffffffffffffffffffffffffffffffffffffff166111e59092919063ffffffff16565b8051909150156111e05780806020019051602081101561118957600080fd5b50516111e0576040517f08c379a000000000000000000000000000000000000000000000000000000000815260040180806020018281038252602a815260200180611792602a913960400191505060405180910390fd5b505050565b60606111f484846000856111fc565b949350505050565b606082471015611257576040517f08c379a000000000000000000000000000000000000000000000000000000000815260040180806020018281038252602681526020018061174b6026913960400191505060405180910390fd5b611260856113b6565b6112cb57604080517f08c379a000000000000000000000000000000000000000000000000000000000815260206004820152601d60248201527f416464726573733a2063616c6c20746f206e6f6e2d636f6e7472616374000000604482015290519081900360640190fd5b6000808673ffffffffffffffffffffffffffffffffffffffff1685876040518082805190602001908083835b6020831061133457805182527fffffffffffffffffffffffffffffffffffffffffffffffffffffffffffffffe090920191602091820191016112f7565b6001836020036101000a03801982511681845116808217855250505050505090500191505060006040518083038185875af1925050503d8060008114611396576040519150601f19603f3d011682016040523d82523d6000602084013e61139b565b606091505b50915091506113ab8282866113bc565b979650505050505050565b3b151590565b606083156113cb575081611073565b8251156113db5782518084602001fd5b816040517f08c379a00000000000000000000000000000000000000000000000000000000081526004018080602001828103825283818151815260200191508051906020019080838360005b8381101561143f578181015183820152602001611427565b50505050905090810190601f16801561146c5780820380516001836020036101000a031916815260200191505b509250505060405180910390fd5b6040518060c001604052806000815260200160008152602001600081526020016000815260200160008152602001600081525090565b803573ffffffffffffffffffffffffffffffffffffffff8116811461050557600080fd5b6000602082840312156114e5578081fd5b611073826114b0565b60008060408385031215611500578081fd5b611509836114b0565b946020939093013593505050565b600060208284031215611528578081fd5b81518015158114611073578182fd5b600060208284031215611548578081fd5b5035919050565b60008060408385031215611561578182fd5b82359150611571602084016114b0565b90509250929050565b6000806040838503121561158c578182fd5b50508035926020909101359150565b6000806000606084860312156115af578081fd5b505081359360208301359350604090920135919050565b73ffffffffffffffffffffffffffffffffffffffff91909116815260200190565b73ffffffffffffffffffffffffffffffffffffffff929092168252602082015260400190565b602080825282518282018190526000919060409081850190868401855b828110156116785781518051855286810151878601528581015186860152606080820151908601526080808201519086015260a0908101519085015260c0909301929085019060010161162a565b5091979650505050505050565b6020808252601d908201527f696e73756666696369656e7420636c61696d61626c6520616d6f756e74000000604082015260600190565b60208082526011908201527f636c696666206e6f742072656163686564000000000000000000000000000000604082015260600190565b90815260200190565b958652602086019490945260408501929092526060840152608083015260a082015260c0019056fe4f776e61626c653a206e6577206f776e657220697320746865207a65726f2061646472657373416464726573733a20696e73756666696369656e742062616c616e636520666f722063616c6c536166654d6174683a206d756c7469706c69636174696f6e206f766572666c6f775361666545524332303a204552433230206f7065726174696f6e20646964206e6f742073756363656564a26469706673582212201a2f5cdac65dfe41ec424e6c5f908264287399d4123276fa8315880e4fb02cde64736f6c63430007060033",
  "linkReferences": {},
  "deployedLinkReferences": {}
}